:020000022000DC
:1070000000000220757302005D7302005F730200CE
:1070100061730200637302006573020000000000E8
:107020000000000000000000000000006773020084
:1070300069730200000000006B7302006D730200B0
:107040006F7302006F7302006F7302006F730200B0
:107050006F7302006F7302006F7302006F730200A0
:107060006F7302006F7302006F7302006F73020090
:107070006F7302006F7302006F7302006F73020080
:107080006F7302006F7302006F7302006F73020070
:107090006F7302006F7302006F7302006F73020060
:1070A0006F7302006F7302006F7302006F73020050
:1070B0006F7302006F730200000000000000000008
:1070C0006F7302006F7302006F7302006F73020030
:1070D0006F7302006F7302006F7302006F73020020
:1070E0006F730200000000000000000000000000BC
:1070F000000000006F730200000000006F730200C8
:10710000000000000000000000000000000000007F
:10711000000000000000000000000000000000006F
:10712000000000000000000000000000000000005F
:10713000000000000000000000000000000000004F
:10714000000000000000000000000000000000003F
:10715000000000000000000000000000000000002F
:10716000000000000000000000000000000000001F
:10717000000000000000000000000000000000000F
:1071800000000000000000000000000000000000FF
:1071900000000000000000000000000000000000EF
:1071A00000000000000000000000000000000000DF
:1071B00000000000000000000000000000000000CF
:1071C00000000000000000000000000000000000BF
:1071D00000000000000000000000000000000000AF
:1071E000000000000000000000000000000000009F
:1071F000000000000000000000000000000000008F
:10720000354936480A1A02D0072291438D4634493F
:1072100034480A1A06D00722914381F309880222D2
:1072200082F3148830483149314A00F044F831483B
:107230003149324A00F03FF831483249324A00F0D1
:107240003AF832483249334A00F035F83248334987
:10725000334A00F030F833483349344A00F02BF811
:1072600033483449344A00F026F83448344900227F
:1072700000F02CF833483449002200F027F8334856
:107280003349091A082902DB002202604160314AB1
:1072900090471F481F49884205D00268043003B454
:1072A000904703BCF7E700208646EC46002000210B
:1072B000294A9047FEE7884207D0521A05D0037842
:1072C00001300B700131013AF9D17047884202D088
:1072D00002700130FAE770470000022000E0012050
:1072E00000000220000002207876020078320020A0
:1072F0007C320020D0730200D07302006C76020052
:107300007876020078320020783200206C76020015
:107310006C7602006C7602006C7602006C760200DD
:107320006C7602006C7602006C76020076760200C3
:107330007C7602007C3200207C3200207C320020EF
:107340007C3200207C3200207C3200207C32002005
:107350007C5200209D7302008D740200FEE7FEE760
:10736000FEE7FEE7FEE7FEE7FEE7FEE7FEE7FEE7F5
:1073700000F002B8FFF7FCBF0F484FF00701884349
:1073800085460E4880470E48016841F4700101604F
:10739000BFF34F8FBFF36F8FFFF732BF09480A4922
:1073A0000A4A884207D0521A05D0037801300B7080
:1073B0000131013AF9D1704700000220F97402004E
:1073C00088ED00E06C7602007832002078320020F0
:1073D000074B1B5C1F2B86BF064903F01F034FF0B2
:1073E000A041012202FA03F3C1F80835704700BF3B
:1073F0006C7602000003005008B50020FFF7E8FF9C
:107400000120FFF7E5FF0220FFF7E2FFBDE808409B
:107410000320FFF7DDBF00000A4B185C1F288ABF5E
:10742000094B4FF0A04300F01F00D3F804250121C1
:10743000814021EA02000A40C3F80805C3F80C2580
:10744000704700BF6C76020000030050C20710B501
:1074500004460CD54FF0A0430322C3F83427C3F8E9
:107460003827C3F83C27C3F84027FFF7C5FFA30719
:107470000AD54FF0A0430C22C3F82C27C3F83027BD
:10748000C3F86027C3F8642710BD000070B5012061
:10749000094DFFF7DBFF45F0010500242046FFF70B
:1074A000BBFF4FF4FA764FF47A40A847013EFAD179
:1074B0000134042CF2D1F0E7707602000A4B1B680D
:1074C0005A1C05BF094B0A4A0A4A10680ABF1B78B2
:1074D0001068C0F303100D2B04D101288CBF0020CD
:1074E000012070470020704730010010E00F00F0CD
:1074F000E80F00F03401001008B5FFF7DFFF40B1DE
:107500004FF080430022C3F80C21C3F81021C3F8C8
:107510003825FFF7D3FF002846D04FF080524D4B5F
:10752000D2F80414C3F82015D2F80814C3F82415AF
:10753000D2F80C14C3F82815D2F81014C3F82C157F
:10754000D2F81414C3F83015D2F81814C3F834154F
:10755000D2F81C14C3F84015D2F82014C3F844150F
:10756000D2F82414C3F84815D2F82814C3F84C15DF
:10757000D2F82C14C3F85015D2F83014C3F85415AF
:10758000D2F83414C3F86015D2F83814C3F864156F
:10759000D2F83C14C3F86815D2F84014C3F86C153F
:1075A000D2F84424C3F87025FFF788FF48B14FF0A4
:1075B0008043D3F80024D20744BF6FF00102C3F820
:1075C0000024254AD2F8883043F47003C2F888308A
:1075D000BFF34F8FBFF36F8F4FF01023D3F800220C
:1075E000002A03DBD3F80432002B2FDA1B4B0122D5
:1075F000C3F80425D3F80024002AFBD04FF0102252
:107600001221C2F80012D3F80024002AFBD04FF058
:1076100010231222C3F80422104B1A46D3F8001488
:107620000029FBD00021C3F80415D2F80034002B48
:10763000FBD0BFF34F8F0849094BCA6802F4E062E0
:107640001343CB60BFF34F8F00BFFDE7054B064AE6
:107650001A6008BD00C0004000ED00E000E00140FD
:0C7660000400FA05783200200090D003EE
:0A766C000D0E0F100338FDD8704713
:047678000090D003AB
:0400000320007375F1
:00000001FF
