:1000000000800020750300005D0300005F03000016
:1000100061030000630300006503000000000000AE
:100020000000000000000000000000006703000066
:1000300069030000000000006B0300006D03000076
:100040006F0300006F0300006F0300006F030000E8
:100050006F0300006F030000BD0700006F03000086
:100060006F0300006F0300006F0300006F030000C8
:100070006F0300006F0300006F0300006F030000B8
:100080006F0300006F0300006F0300006F030000A8
:100090006F0300006F0300006F0300006F03000098
:1000A0006F0300006F0300006F0300006F03000088
:1000B0006F0300006F03000000000000000000005C
:1000C0006F0300006F0300006F0300006F03000068
:1000D0006F0300006F0300006F0300006F03000058
:1000E0006F0300000000000000000000000000009E
:1000F000000000006F030000000000006F0300001C
:1001000000000000000000000000000000000000EF
:1001100000000000000000000000000000000000DF
:1001200000000000000000000000000000000000CF
:1001300000000000000000000000000000000000BF
:1001400000000000000000000000000000000000AF
:10015000000000000000000000000000000000009F
:10016000000000000000000000000000000000008F
:10017000000000000000000000000000000000007F
:10018000000000000000000000000000000000006F
:10019000000000000000000000000000000000005F
:1001A000000000000000000000000000000000004F
:1001B000000000000000000000000000000000003F
:1001C000000000000000000000000000000000002F
:1001D000000000000000000000000000000000001F
:1001E000000000000000000000000000000000000F
:1001F00000000000000000000000000000000000FF
:10020000354936480A1A02D0072291438D463449AF
:1002100034480A1A06D00722914381F30988022242
:1002200082F3148830483149314A00F044F83148AB
:100230003149324A00F03FF831483249324A00F041
:100240003AF832483249334A00F035F832483349F7
:10025000334A00F030F833483349344A00F02BF881
:1002600033483449344A00F026F8344834490022EF
:1002700000F02CF833483449002200F027F83348C6
:100280003349091A082902DB002202604160314A21
:1002900090471F481F49884205D00268043003B4C4
:1002A000904703BCF7E700208646EC46002000217B
:1002B000294A9047FEE7884207D0521A05D00378B2
:1002C00001300B700131013AF9D17047884202D0F8
:1002D00002700130FAE770470080002000600020C3
:1002E0000080002000800020AC0B000000000020F7
:1002F00004000020D0030000D0030000A60B000083
:10030000AC0B00000000002000000020A80B000043
:10031000A80B0000A80B0000A80B0000A80B000011
:10032000A80B0000A80B0000A80B0000AB0B0000FE
:10033000B00B000004000020040000200400002096
:100340005C0000205C0000205C0000205C000020BD
:100350005C2000209D03000035090000FEE7FEE759
:10036000FEE7FEE7FEE7FEE7FEE7FEE7FEE7FEE765
:1003700000F002B8FFF7FCBF0F484FF007018843B9
:1003800085460E4880470E48016841F470010160BF
:10039000BFF34F8FBFF36F8FFFF732BF09480A4992
:1003A0000A4A884207D0521A05D0037801300B70F0
:1003B0000131013AF9D1704700800020CD090000D9
:1003C00088ED00E0A80B00000000002000000020E5
:1003D0001FB50021039001AA44F20100CDE90111EB
:1003E00000F004F805B05DF804FB000072B6094B9C
:1003F0001B68DB0700D500BEBFF34F8F0649074BD4
:10040000CA6802F4E0621343CB60BFF34F8F00BFB2
:10041000FDE700BFF0ED00E000ED00E00400FA05AC
:1004200000F1804000F5C040002382B00360036803
:100430000193019B02B0704703681F2B83BF03F039
:100440001F03036001484FF0A040704700030050B5
:1004500007B5019001A8FFF7EFFF019B00EB8300B8
:10046000D0F8003723F44033C0F80037D0F8003715
:1004700043EA0141C0F8001703B05DF804FB000037
:10048000054B4FF0FF32072843F8202084BFC018E7
:1004900080F84620704700BF0400002038B51E4C8D
:1004A00094F85530ABBB40F2FF31FF205A09012AC6
:1004B00014BF4FF0FF320A4603F01F05EA40D2078F
:1004C00048BFE21803F1010348BF82F824002A2B39
:1004D000ECD10021C8B2FFF7D3FF01310929F9D1CE
:1004E000062200210D4800F02BFB0D4BC02283F8A3
:1004F000062340221A604FF4BE70FFF791FF094BAC
:100500004FF00042C3F80423012384F85530002043
:1005100038BD0820FCE700BF040000205300002085
:1005200000E100E00060004037B5354B1A18044682
:1005300092F92400013061D18878002852D0184601
:10054000002250F8045B013546D1181980F82420A8
:10055000002043F82200920002F1804202F5C042DE
:100560000B78D2F81055487825F499151B0400052E
:1005700025F4F85500F4801003F44033C2F8105508
:1005800003432002D2F8105500F47C5003432B4360
:10059000C2F810354A780194012A01A826D1FFF744
:1005A0004BFF019B9A40C0F8082501A80194FFF772
:1005B00043FF019B134903F5E073032240F8232016
:1005C00024FA02F2012304F0070003FA00F08B5C26
:1005D00018438854002003E00132082AB1D10420D6
:1005E00003B030BDFE2382F82430D3E7FFF724FFA9
:1005F000019A01239340C0F80C35D6E70820EFE7B5
:10060000040000205300002007B5019001A8FFF767
:1006100013FF0199D0F8043501228A4022EA030130
:100620001340C0F80815C0F80C3503B05DF804FBA2
:10063000F7B53B4E3318054693F92430002B6CDA9E
:100640008B78C3F34003002B0BBF08240024092040
:100650000820844202D1042003B0F0BD56F8247073
:10066000013743D1701946F8242080F8244013B98B
:10067000331983F846508B785A0717D4D80737D5E3
:1006800001A80195FFF7D8FE019B00EB8300D0F88D
:10069000003723F00203C0F800372248EA0805F0CB
:1006A00007070123BB40875C3B4383548B780A7860
:1006B00013F0020328D0A40004F1804404F5C044E0
:1006C0002D02D4F8103523F44F3323F44073C4F8CB
:1006D00010351204D4F8103505F47C5502F440327C
:1006E00015431D43C4F810550020B5E70134B0E7A9
:1006F00001A84A780195FFF79FFE019B03F5E0737F
:10070000920040F82320C8E7083C344494F84E5047
:1007100045EA821284F84E20E6E708209CE700BFF5
:10072000040000205300002073B5224C2618054613
:1007300096F92420072A1ADD224492F846309B09B4
:10074000032B0FD1019001A8FFF776FE019BD0F893
:100750001015D94001F0010102312846FFF778FE5B
:1007600002B070BD012B0CBF02210321F5E7D3B20B
:10077000072BF5D8930003F1804303F5C043D3F86A
:10078000100540F00100C3F8100502F140008000A0
:1007900080B2FFF745FE0029E2D096F9243054F8E4
:1007A0002330002BDCD0012303FA02F2024BC3F802
:1007B0000423D5E704000020006000402DE9F04349
:1007C000002485B0CDE90244544D4FF480720121DC
:1007D00002F1804303F5C04390B21B68012B06D1A0
:1007E000D5F804330B4202D0FFF71AFE0C43043253
:1007F000B2F5907F4FEA4101EAD1494B1B68012BCA
:1008000011D14FF4BE70FFF70BFE4FF0A04344F040
:100810000044D3F820250292C3F82025D3F82028DD
:100820000392C3F8202814F0FF0F1AD03D4F012681
:100830000025344210D0AB0003F1804303F5C043E0
:10084000D3F81005D3F8101557F8253023B1C1F3AC
:100850000141C0F3052098470135082D4FEA4606AF
:10086000E7D1002C51DA2F4D2F4C2E4695F94E3002
:100870005A1C3CD0C3F3C20104A80144DAB211F8F7
:10088000081C03F03F074FF0010903F0070309FAC2
:1008900003F319422BD001A80197FFF7CDFD019B6F
:1008A00003F5E07350F82330C3F30148B8F1020FA9
:1008B0000CBF032102213846FFF7CAFD01A80197AA
:1008C000FFF7BAFD019B09FA03F3C0F82035F319CD
:1008D00093F9243056F823304BB19109032904D001
:1008E000B8F1020F14D1494501D1384698474FF06D
:1008F000A043D3F820250292C3F82025D4F8203550
:100900000393C4F820351343B0D105B0BDE8F0839C
:10091000B8F1030FEBD10229E6E700BF0060004009
:100920007C61004004000020000300500D20FFF710
:100930006BBE000007B5FFF7B1FD08B1FFF748FD3A
:100940000123ADF80030694600230D208DF80230F8
:10095000FFF7EAFD08B1FFF73BFD0B4B1A889B78C8
:10096000ADF804208DF80630084A032301A90B20B6
:100970008DF80530FFF75CFE08B1FFF729FD012176
:100980000B20FFF7D1FEFEE7A80B00002D090000A9
:100990000A4B1B685A1C05BF094B0A4A0A4A1068D1
:1009A0000ABF1B781068C0F303100D2B04D1012877
:1009B0008CBF0020012070470020704730010010DC
:1009C000E00F00F0E80F00F03401001008B5FFF769
:1009D000DFFF40B14FF080430022C3F80C21C3F881
:1009E0001021C3F83825FFF7D3FF002846D04FF079
:1009F00080524D4BD2F80414C3F82015D2F80814D5
:100A0000C3F82415D2F80C14C3F82815D2F8101422
:100A1000C3F82C15D2F81414C3F83015D2F81814F2
:100A2000C3F83415D2F81C14C3F84015D2F82014BA
:100A3000C3F84415D2F82414C3F84815D2F8281482
:100A4000C3F84C15D2F82C14C3F85015D2F8301452
:100A5000C3F85415D2F83414C3F86015D2F838141A
:100A6000C3F86415D2F83C14C3F86815D2F84014E2
:100A7000C3F86C15D2F84424C3F87025FFF788FF3B
:100A800048B14FF08043D3F80024D20744BF6FF041
:100A90000102C3F80024254AD2F8883043F47003D9
:100AA000C2F88830BFF34F8FBFF36F8F4FF0102322
:100AB000D3F80022002A03DBD3F80432002B2FDA0C
:100AC0001B4B0122C3F80425D3F80024002AFBD0D5
:100AD0004FF010221221C2F80012D3F80024002A8D
:100AE000FBD04FF010231222C3F80422104B1A46F9
:100AF000D3F800140029FBD00021C3F80415D2F864
:100B00000034002BFBD0BFF34F8F0849094BCA6854
:100B100002F4E0621343CB60BFF34F8F00BFFDE7E9
:100B2000054B064A1A6008BD00C0004000ED00E019
:100B300000E001400400FA05000000200090D0030E
:100B40008446002A2DD010F0030F04D000F8011BBA
:100B5000013A26D0F7E7C9B241EA012141EA014151
:100B6000202A12D3A2F120022DE9F0030B460C46F5
:100B70000D460E460F4688468946A0E8FA03203AFD
:100B8000FBD2BDE8F00320320BD0042A05D340F895
:100B9000041B043A05D0042AF9D200F8011B013ADB
:060BA000FBD16046704726
:030BA80003000245
:040BAC000090D003E2
:040000030000037581
:00000001FF
