:1000000000800020750300005D0300005F03000016
:1000100061030000630300006503000000000000AE
:100020000000000000000000000000006703000066
:1000300069030000000000006B0300006D03000076
:100040006F0300006F0300006F0300006F030000E8
:100050006F03000000000000B9160000000000005F
:100060006F0300006F0300006F0300006F030000C8
:100070006F0300006F0300006F0300006F030000B8
:100080006F0300006F0300006F0300006F030000A8
:100090006F0300006F0300006F0300006F03000098
:1000A0006F0300006F0300006F03000000000000FA
:1000B0000000000000000000000000000000000040
:1000C0000000000000000000000000000000000030
:1000D0000000000000000000000000006F030000AE
:1000E0000000000000000000000000000000000010
:1000F0000000000000000000000000000000000000
:1001000000000000000000000000000000000000EF
:1001100000000000000000000000000000000000DF
:1001200000000000000000000000000000000000CF
:1001300000000000000000000000000000000000BF
:1001400000000000000000000000000000000000AF
:10015000000000000000000000000000000000009F
:10016000000000000000000000000000000000008F
:10017000000000000000000000000000000000007F
:10018000000000000000000000000000000000006F
:10019000000000000000000000000000000000005F
:1001A000000000000000000000000000000000004F
:1001B000000000000000000000000000000000003F
:1001C000000000000000000000000000000000002F
:1001D000000000000000000000000000000000001F
:1001E000000000000000000000000000000000000F
:1001F00000000000000000000000000000000000FF
:10020000354936480A1A02D0072291438D463449AF
:1002100034480A1A06D00722914381F30988022242
:1002200082F3148830483149314A00F044F83148AB
:100230003149324A00F03FF831483249324A00F041
:100240003AF832483249334A00F035F832483349F7
:10025000334A00F030F833483349344A00F02BF881
:1002600033483449344A00F026F8344834490022EF
:1002700000F02CF833483449002200F027F83348C6
:100280003349091A082902DB002202604160314A21
:1002900090471F481F49884205D00268043003B4C4
:1002A000904703BCF7E700208646EC46002000217B
:1002B000294A9047FEE7884207D0521A05D00378B2
:1002C00001300B700131013AF9D17047884202D0F8
:1002D00002700130FAE770470080002000700020B3
:1002E0000080002000800020E81F000000000020A7
:1002F0000C000020BC030000BC0300007E1E0000B8
:10030000E81F00000000002000000020801E000008
:10031000801E0000801E0000801E0000801E000065
:10032000801E0000801E0000801E0000E61F0000EE
:10033000F41F00000C0000200C0000200C00002026
:10034000780000207800002078000020780000204D
:10035000781000208B030000811A0000FEE7FEE702
:10036000FEE7FEE7FEE7FEE7FEE7FEE7FEE7FEE765
:1003700000F002B8FFF7FCBF0B484FF007018843BD
:1003800085460A488047FFF73BBF094809490A4AA2
:10039000884207D0521A05D0037801300B70013122
:1003A000013AF9D17047000000800020511C000084
:0C03B000801E0000000000200000002063
:1003BC0082B00C4B1B6801930B4B1B680093019B89
:1003CC00102B0AD1009B002B03D0009B012B02D0D9
:1003DC0003E0012302E0002300E00023184602B0F2
:1003EC00704700BF300100103401001000B583B01D
:1003FC000190019B1B68184600F0B6F80346002BD1
:10040C0004D105494FF4F67000F0DCF94FF0A0432D
:10041C00184603B05DF804FB801E000000B585B0E3
:10042C000190084611461A4603468DF803300B46D8
:10043C008DF8023013468DF8013001AB1846FFF7EA
:10044C00D5FF03909DF803209DF802305B001A4302
:10045C009DF801309B001A439DF818301B0242EAAC
:10046C0003019DF81C301B04019A1943039B02F5F0
:10047C00E07243F8221000BF05B05DF804FB00B534
:10048C0085B00390002301930023009300230122E5
:10049C0001210398FFF7C2FF00BF05B05DF804FB14
:1004AC0000B585B003900B468DF80B309DF80B30E2
:1004BC000022019200220092002200210398FFF7F3
:1004CC00ADFF00BF05B05DF804FB00B585B0019031
:1004DC0001AB1846FFF78AFF0390019B012202FA39
:1004EC0003F31946039800F02AF800BF05B05DF835
:1004FC0004FB00B585B0019001AB1846FFF776FF01
:10050C000390019B012202FA03F31946039800F0B1
:10051C0020F800BF05B05DF804FB00B583B0019076
:10052C000091009B002B03D10198FFF7E2FF02E042
:10053C000198FFF7CAFF00BF03B05DF804FB82B05F
:10054C0001900091019B009AC3F8082500BF02B0EE
:10055C00704782B001900091019B009AC3F80C2562
:10056C0000BF02B07047000000B585B00190019B40
:10057C005B09029300230393029B002B0FD1FFF71F
:10058C0017FF0346002B01D00E4B00E00E4B0393DC
:10059C00039B43F0407343F46053039300BF019BF0
:1005AC0003F01F030193039A019B22FA03F303F058
:1005BC000103002B14BF01230023DBB2184605B046
:1005CC005DF804FB3F8E16F0FFC1177000B583B0C9
:1005DC000190019B032B03D90749472000F0F2F847
:1005EC00064A019B13441B7801211846FFF795FF1F
:1005FC0000BF03B05DF804FBB81E0000F01E000045
:10060C0000B583B00023019305E00198FFF7DEFFEE
:10061C00019B01330193019B032BF6D900BF00BF53
:10062C0003B05DF804FB000000B583B00023019318
:10063C0009E0094A019B13441B781846FFF71FFF7A
:10064C00019B01330193019B032BF2D9FFF7D8FFD8
:10065C0000BF03B05DF804FBF01E000000B583B0D2
:10066C00002301930AE0094A019B13441B780321E0
:10067C001846FFF715FF019B01330193019B032BD8
:10068C00F1D900BF00BF03B05DF804FBF41E0000FD
:10069C0000B583B00190019B03F00103002B01D046
:1006AC00FFF7C2FF019B03F00203002B01D0FFF701
:1006BC00D5FF00BF03B05DF804FB000086B00390CB
:1006CC000291019201238DF817309DF81730204AC2
:1006DC00039B13601E4A029B53601D4A019B93604F
:1006EC00039B44F20102934212D0039B44F2020298
:1006FC00934220D1019B164AD360154BDB681B68D3
:10070C00134A9361124BDB685B68114AD36112E0A8
:10071C00019B0F4A13610E4B1B699B680C4A53617A
:10072C000B4B1B691B680A4A9361094B1B695B687D
:10073C00074AD36100BF72B600BF00BF9DF81730E7
:10074C00DBB2002BFAD162B600BF00BF06B0704717
:10075C000C00002000B583B002900091019244F28D
:10076C00010071466A4600F003F803B000BD00BFFB
:10077C0000B587B003900291019272B600BF039B43
:10078C0044F20102934207D0039B44F202029342CB
:10079C0005D1019B059303E0019B049300E000BF8E
:1007AC00074B1B6803F00103002B00D000BE019A1D
:1007BC0002990398FFF782FF00BF07B05DF804FBB6
:1007CC00F0ED00E000B585B003460091ADF80630C1
:1007DC00BDF806300293009B039302AB1A4600212E
:1007EC0044F20200FFF7C4FF00BF05B05DF804FB44
:1007FC0082B003468DF807309DF90730002B0CDBD7
:10080C009DF8073003F01F0205499DF907305B097D
:10081C00012000FA02F241F8232000BF02B0704719
:10082C0000E100E082B0034600918DF807309DF99D
:10083C000730002B0ADB009BDAB20C499DF907301C
:10084C005201D2B20B4483F800230BE0009BDAB2C6
:10085C0007499DF8073003F00F03043B5201D2B255
:10086C000B441A7600BF02B0704700BF00E100E0F5
:10087C0000ED00E082B00190019B1B0B5BB21846AF
:10088C0002B0704700B583B003460A468DF80730B6
:10089C0013468DF806309DF80630072B03D908490E
:1008AC006B20FFF78FFF9DF806209DF9073011464E
:1008BC001846FFF7B7FF00BF03B05DF804FB00BF9D
:1008CC00F81E000000B583B003468DF807309DF983
:1008DC0007301846FFF78CFF00BF03B05DF804FB30
:1008EC0000B583B00346ADF80630BDF806301846A7
:1008FC0000F026F803461B68012B0CBF01230023D4
:10090C00DBB2184603B05DF804FB00B585B00346B6
:10091C00ADF80630BDF80630184600F011F8034665
:10092C001A4600231360BDF80630184600F008F88C
:10093C0003461B680393039B00BF05B05DF804FBE3
:10094C0082B00346ADF80630BDF8063003F18043A3
:10095C0003F5C043184602B07047000082B0019006
:10096C00034A019BC2F8043300BF02B0704700BFBA
:10097C000060004082B00190034BD3F80423019B2C
:10098C001340184602B070470060004082B00190DE
:10099C00084A019B03F5A27352F82330054943F032
:1009AC000102019B03F5A27341F8232000BF02B0A2
:1009BC00704700BF0060004084B003900291134662
:1009CC008DF80730144A039B03F5A27352F82330B9
:1009DC00114923F4473323F44073039A02F5A272AE
:1009EC0041F822300C4A039B03F5A27352F82320E2
:1009FC00029B1B0203F4F8519DF807301B0403F40F
:100A0C0040330B4304491A43039B03F5A27341F88B
:100A1C00232000BF04B070470060004082B00190FA
:100A2C00054A019B03F5A27352F823301B0A03F00D
:100A3C001F03184602B070470060004082B001905E
:100A4C00064A019B03F5A27352F823301B0C03F0EA
:100A5C000303DBB2184602B0704700BF00600040D1
:100A6C0084B00390029111461A460B468DF807305C
:100A7C0013468DF80630184A039B03F5A27352F8FF
:100A8C002330154923F4981323F4F853039A02F5F1
:100A9C00A27241F82230104A039B03F5A27352F85C
:100AAC002320029B1B0203F4F8519DF807301B0412
:100ABC0003F4403319439DF806301B0503F48013EF
:100ACC000B4305491A43039B03F5A27341F82320FA
:100ADC0000BF04B0704700BF0060004082B00C4BF8
:100AEC001B6801930B4B1B680093019B102B0AD1C5
:100AFC00009B002B03D0009B012B02D003E00123B1
:100B0C0002E0002300E00023184602B0704700BF4B
:100B1C00300100103401001000B583B00190019B2E
:100B2C001B68184600F084F90346002B04D10549D4
:100B3C004FF4F670FFF746FE4FF0A043184603B093
:100B4C005DF804FB301F000000B585B0019008462D
:100B5C0011461A4603468DF803300B468DF80230C9
:100B6C0013468DF8013001AB1846FFF7D5FF039003
:100B7C009DF803209DF802305B001A439DF801306C
:100B8C009B001A439DF818301B0242EA03019DF8A2
:100B9C001C301B04019A1943039B02F5E07243F8C5
:100BAC00221000BF05B05DF804FB00B585B00390C2
:100BBC0000230193002300930023012201210398B9
:100BCC00FFF7C2FF00BF05B05DF804FB00B585B0B0
:100BDC0003900B468DF80B309DF80B3000220192E0
:100BEC0000220092002200210398FFF7ADFF00BF06
:100BFC0005B05DF804FB00B585B0019001AB18465B
:100C0C00FFF78AFF0390019A039B02F5E07253F8F9
:100C1C00223023F002030293019A039B02F5E07247
:100C2C00029943F8221000BF05B05DF804FB00B533
:100C3C0085B001900B468DF8033001AB1846FFF7D9
:100C4C006BFF0390019A039B02F5E07253F822307C
:100C5C00019A23F44031039B02F5E07243F8221011
:100C6C00019A039B02F5E07253F822309DF80320A1
:100C7C0012041146019A1943039B02F5E07243F8E2
:100C8C00221000BF05B05DF804FB00B585B00190E3
:100C9C0001AB1846FFF740FF0390019B012202FABB
:100CAC0003F31946039800F06DF800BF05B05DF82A
:100CBC0004FB00B585B0019001AB1846FFF72CFF83
:100CCC000390019B012202FA03F31946039800F0EA
:100CDC0063F800BF05B05DF804FB00B585B001906A
:100CEC0001AB1846FFF718FF0390039BD3F80435AC
:100CFC000293029BDA43019B012101FA03F31A4090
:100D0C00039BC3F80825019B01229A40029B1A40C1
:100D1C00039BC3F80C2500BF05B05DF804FB00B5C0
:100D2C0085B0019001AB1846FFF7F6FE03900398CF
:100D3C0000F020F80246019B22FA03F303F00103B2
:100D4C00184605B05DF804FB00B585B0019001AB09
:100D5C001846FFF7E1FE0390019A039B02F5E0723F
:100D6C0053F822301B0C03F00303DBB2184605B01A
:100D7C005DF804FB82B00190019BD3F81035184646
:100D8C0002B0704782B001900091019B009AC3F8A9
:100D9C00082500BF02B0704782B001900091019B02
:100DAC00009AC3F80C2500BF02B0704786B00390C0
:100DBC00029101924FF0A0430493039B059319E019
:100DCC00059B9B0006AA134453F8083CD3F8202536
:100DDC00019B1A60059B9B0006AA134453F8083C20
:100DEC00019A1268C3F82025019B04330193059BDB
:100DFC0001330593039A029B1344059A9A42DFD35D
:100E0C0000BF00BF06B0704700B585B0019001ABC4
:100E1C001846FFF781FE0390019B012202FA03F3AF
:100E2C001A46039BC3F8202500BF05B05DF804FBF0
:100E3C0000B585B00190019B5B09029300230393DD
:100E4C00029B002B0FD1FFF749FE0346002B01D06C
:100E5C000E4B00E00E4B0393039B43F0407343F4A3
:100E6C006053039300BF019B03F01F030193039A8C
:100E7C00019B22FA03F303F00103002B14BF01239F
:100E8C000023DBB2184605B05DF804FB3F8E16F06C
:100E9C00FFC1177084B001900091009B0393019BDC
:100EAC00DB080293019B03F0070301930122019BD2
:100EBC0002FA03F30399029A0A4412781340184673
:100ECC0004B0704784B001900091009B0393019B88
:100EDC00DB080293019B03F007030193039A029B27
:100EEC0013441B785AB20121019B01FA03F35BB244
:100EFC00134359B2039A029B1344CAB21A7000BF2F
:100F0C0004B0704782B00190074A019B134424330C
:100F1C0093F90030B3F1FF3F14BF01230023DBB280
:100F2C00184602B0704700BF2C00002082B0019020
:100F3C000C4A019B1344243393F90030002B09DB3A
:100F4C00084A019B1344243393F90030072B01DC2E
:100F5C00012300E0002303F00103DBB2184602B0CA
:100F6C00704700BF2C00002082B00190064A019B04
:100F7C001344243393F90030072BCCBF01230023F7
:100F8C00DBB2184602B070472C00002082B00190F2
:100F9C00064A019B1344243393F90030DB43DBB244
:100FAC00DB09DBB2184602B0704700BF2C000020F2
:100FBC0084B00390029101928DF80330029B59B2D8
:100FCC000E4A039B134424330A461A700B49029BA6
:100FDC00019A41F823209DF8033083F00103DBB222
:100FEC00002B08D0029B083B039A51B2034A1344CE
:100FFC000A4683F8442000BF04B070472C00002040
:10100C0082B00190044A019B13442433FE221A70CF
:10101C0000BF02B0704700BF2C00002082B00190CE
:10102C00044A019B13442433FF221A7000BF02B000
:10103C00704700BF2C00002000B583B0019004491C
:10104C000198FFF73FFF00BF03B05DF804FB00BF42
:10105C007100002082B00190044A019B1344243398
:10106C0093F90030184602B0704700BF2C000020E6
:10107C0082B00190034A019B52F82330184602B00B
:10108C00704700BF2C00002084B00190074A019BE0
:10109C001344443393F900308DF80F309DF80F3022
:1010AC0023F0C003184604B0704700BF2C0000208A
:1010BC0084B00190074A019B1344443393F90030E8
:1010CC008DF80F309DF80F309B09DBB2184604B039
:1010DC00704700BF2C00002000B589B0039002912E
:1010EC0013468DF80730FF238DF81F309DF807301D
:1010FC00002B01D0002300E0082305939DF8073056
:10110C00002B01D0082300E009230493059B0693D0
:10111C0014E00F4A069B52F82330B3F1FF3F0AD17B
:10112C009DF80730029A06990398FFF741FF069B3A
:10113C008DF81F3006E0069B01330693069A049B3C
:10114C009A42E6D39DF91F30184609B05DF804FBAE
:10115C002C00002082B003468DF807309DF8073034
:10116C00094A4FF0FF3142F823109DF80730072B46
:10117C0007D99DF80730083B034A1344FF2283F834
:10118C00442000BF02B070472C00002000B583B093
:10119C002D4B93F84930002B03D008230093009B70
:1011AC004EE000238DF8073011E09DF8073018460B
:1011BC00FFF73EFE0346002B04D09DF8073018467F
:1011CC00FFF72CFF9DF8073001338DF807309DF8A1
:1011DC0007301F2BE9D900238DF8073009E09DF863
:1011EC0007301846FFF7B6FF9DF8073001338DF82E
:1011FC0007309DF80730082BF1D904220021134841
:10120C0000F004FE1248FFF735FB03460621184692
:10121C00FFF738FB0E48FFF72DFB03461846FFF788
:10122C0051FB4FF4BE70FFF770FB4FF00040FFF71F
:10123C0095FB054B012283F8492000230093009B6A
:10124C00184603B05DF804FB2C0000207100002050
:10125C000060004000B585B0019000910198FFF747
:10126C00E7FD0346002B04D12D4940F24910FFF74E
:10127C00A9FA2C4B93F84930012B04D028494FF490
:10128C00A570FFF79FFA009B002B04D1244940F274
:10129C004B10FFF797FA002303930198FFF732FEE8
:1012AC000346002B02D00823039334E0009B9B7869
:1012BC00002B19D0012200210198FFF70DFF0346E6
:1012CC008DF80B309DF90B30B3F1FF3F09D09DF930
:1012DC000B00009B1A78009B5B780199FFF7C0FB11
:1012EC0005E00423039302E00198FFF789FE039BBA
:1012FC00002B10D1009B5B78012B03D10198FFF7D9
:10130C00C4FC02E00198FFF7D4FC0198FFF74DFCF8
:10131C000198FFF791FE039B184605B05DF804FB9E
:10132C00681F00002C00002000B583B001900198CC
:10133C00FFF77EFD0346002B04D1124940F2A910A1
:10134C00FFF740FA0198FFF7DDFD0346002B04D1AF
:10135C000C494FF4D570FFF735FA0198FFF7E6FD0D
:10136C00034683F00103DBB2002B04D1054940F2A4
:10137C00AB10FFF727FA0198FFF7AFFC00BF03B0E3
:10138C005DF804FB681F000000B587B00390029164
:10139C0001920398FFF74CFD0346002B04D136490C
:1013AC004FF40C70FFF70EFA002305930398FFF728
:1013BC00EDFD0346002B02D00823059357E0029B5A
:1013CC009B78C3F34003DBB21A4601990398FFF7ED
:1013DC0083FE03468DF813309DF91330B3F1FF3FB4
:1013EC0043D0029B9B78C3F38003DBB283F00103F1
:1013FC00DBB2002B13D0029B9B7803F00103DBB212
:10140C00002B03D00398FFF7F6FB05E0029B5B78FB
:10141C0019460398FFF7DAFB0398FFF70DFE029BC2
:10142C009B7803F00203DBB2002B08D09DF913006C
:10143C00029B1B781A460399FFF7BEFA17E09DF939
:10144C001330083B0D4A134493F94410029B1B784C
:10145C009B015AB29DF91330083B0A4351B2074A1B
:10146C0013440A4683F8442001E004230593059BAA
:10147C00184607B05DF804FB681F00002C00002024
:10148C0000B589B001900B468DF803300198FFF739
:10149C00CFFC0346002B04D13A494FF41870FFF7E8
:1014AC0091F90198FFF772FD0346002B04D13549E1
:1014BC0040F26120FFF786F90198FFF755FD0346CE
:1014CC00002B2AD00198FFF7C5FD0346083B1846B0
:1014DC00FFF7EEFD03468DF80F309DF80F30032B10
:1014EC000BD10198FFF71BFC0346002B01D0032303
:1014FC0000E002238DF81F3008E09DF80F30012B1F
:10150C0001D1022300E003238DF81F309DF81F301A
:10151C0019460198FFF78BFB30E00198FFF706FDA9
:10152C000346002B2AD00198FFF794FD034606933F
:10153C00069B9BB240339BB29B00ADF81630069BCA
:10154C001846FFF723FABDF816301846FFF7DDF9F9
:10155C009DF80330002B11D00198FFF77BFD03465B
:10156C001846FFF785FD0490049B002B06D0012242
:10157C00069B02FA03F31846FFF7F0F900BF09B017
:10158C005DF804FB681F000000B585B00190019A5E
:10159C0001210020FFF70AFC002303930BE0039BBF
:1015AC009B00019A13441B68002B01D0012306E019
:1015BC00039B01330393039B002BF0D000231846AD
:1015CC0005B05DF804FB000000B587B00190002366
:1015DC0005935BE0344A059B1344443393F9003084
:1015EC00B3F1FF3F4ED00598FFF74EFD04900199E3
:1015FC000498FFF74FFC0346002B44D00598FFF7E7
:10160C0057FD03468DF80F300498FFF79DFB0346FA
:10161C008DF80E309DF80E30022B01D1032300E023
:10162C0002238DF80D309DF80D3019460498FFF704
:10163C00FEFA0498FFF7E8FB0498FFF70BFD03464E
:10164C001846FFF715FD0290029B002B1BD09DF84E
:10165C000F30032B0FD09DF80E30022B03D19DF8C9
:10166C000F30012B07D09DF80E30032B0BD19DF8BA
:10167C000F30022B07D19DF80F20029B11460498C6
:10168C00984700E000BF059B01330593059B002B99
:10169C00A0D00198FFF778FF0346002B97D100BF2D
:1016AC0000BF07B05DF804FB2C00002000B589B02A
:1016BC0000230793002300934FF48073ADF816308A
:1016CC00012304930023069321E0BDF8163018463D
:1016DC00FFF706F90346002B0ED00498FFF74AF9E2
:1016EC000346002B08D0BDF816301846FFF70DF94D
:1016FC00079A049B13430793049B5B000493BDF868
:10170C0016300433ADF81630069B01330693069B56
:10171C00072BDAD94FF4BE70FFF7E2F80346002B23
:10172C000DD04FF4BE70FFF7F0F8079B43F0004369
:10173C0007936B461A4601210020FFF737FB079BE6
:10174C00DBB2002B29D0012304930023069321E064
:10175C00049A079B1340002B16D00698FFF75EF9EE
:10176C0003900698FFF76AF903468DF80B3006983C
:10177C00FFF77EFC0190019B002B05D09DF80B2000
:10178C00019B114603989847049B5B000493069BAE
:10179C0001330693069B072BDAD9079B002B03DA40
:1017AC006B461846FFF710FF00BF09B05DF804FB4D
:1017BC0000B585B00190019B002B0AD0074B43F07C
:1017CC0001030393019B9B010293039B029898478F
:1017DC0000E000BF05B05DF804FB00BFE01F000097
:1017EC0000B583B00190019B002B0AD04FF47A70A6
:1017FC00FFF7DEFF019B013B0193019B002BF5D111
:10180C0000E000BF03B05DF804FB000000B583B03E
:10181C0001900B468DF80330044B1B781846FFF7EC
:10182C0083FD00BF03B05DF804FB00BF0000002087
:10183C0000B583B001900B468DF80330044B5B78F8
:10184C001846FFF771FD00BF03B05DF804FB00BF45
:10185C000000002000B583B001900B468DF80330DA
:10186C00044B9B781846FFF75FFD00BF03B05DF893
:10187C0004FB00BF0000002000B583B001900B46B4
:10188C008DF80330044BDB781846FFF74DFD00BF95
:10189C0003B05DF804FB00BF0000002000B58FB062
:1018AC00FFF774FC0C900C9B0B930B9B002B04D040
:1018BC00654A7D210B98FEF74DFF644A05AB126813
:1018CC00114619800233120C1A7000230D9317E085
:1018DC005F4A0D9B13441B781A4605AB19461046FC
:1018EC00FFF7B8FC0C900C9B0693069B002B04D0C6
:1018FC00554A83210698FEF72DFF0D9B01330D935E
:10190C000D9B032BE4DD534A04AB1268114619807E
:10191C000233120C1A7003238DF811304E4B1B78C6
:10192C00184604AB4D4A1946FFF72EFD0C900C9B44
:10193C000A930A9B002B04D0434A8C210A98FEF789
:10194C0009FF454B1B7801211846FFF799FD012033
:10195C00FFF746FF3F4A03AB12681146198002336A
:10196C00120C1A7003238DF80D303B4B5B78184624
:10197C0003AB3B4A1946FFF707FD0C900C9B0993F0
:10198C00099B002B04D0304A95210998FEF7E2FE02
:10199C00314B5B7801211846FFF772FD0120FFF7F0
:1019AC001FFF304A02AB1268114619800233120C29
:1019BC001A7003238DF80930274B9B78184602AB1D
:1019CC00294A1946FFF7E0FC0C900C9B0893089BE6
:1019DC00002B04D01C4A9F210898FEF7BBFE1E4B1F
:1019EC009B7801211846FFF74BFD0120FFF7F8FE0D
:1019FC001E4A01AB1268114619800233120C1A7080
:101A0C0003238DF80530144BDB78184601AB184ACC
:101A1C001946FFF7B9FC0C900C9B0793079B002B06
:101A2C0004D0094AA8210798FEF794FE0A4BDB78EC
:101A3C0001211846FFF724FD0120FFF7D1FE00BF5E
:101A4C000FB05DF804FB00BFAC1F0000CC1F000002
:101A5C0000000020D01F0000040000201918000016
:101A6C003D180000D41F000061180000D81F0000B2
:101A7C008518000008B50120FEF70AFE0220FEF7CB
:101A8C0007FEFFF70BFFFEE7BFF34F8F00BF064BC0
:101A9C00DB6803F4E0620449044B1343CB60BFF3EF
:101AAC004F8F00BF00BFFDE700ED00E00400FA051A
:101ABC0082B01B4B1B68B3F1FF3F0AD1194B1B685B
:101ACC00DBB20193184B1B681B0903F00F03009347
:101ADC0005E0134B1B680193144B1B680093019B8F
:101AEC000D2B0AD1009B002B03D0009B012B02D0A5
:101AFC0003E0012310E001230EE0019B102B0AD11F
:101B0C00009B002B03D0009B012B02D003E0012390
:101B1C0002E0012300E00023184602B0704700BF2A
:101B2C0030010010E00F00F0E80F00F0340100105D
:101B3C0082B01B4B1B68B3F1FF3F0AD1194B1B68DA
:101B4C00DBB20193184B1B681B0903F00F030093C6
:101B5C0005E0134B1B680193144B1B680093019B0E
:101B6C000D2B0AD1009B002B03D0009B012B02D024
:101B7C0003E0012310E001230EE0019B102B0AD19E
:101B8C00009B002B03D0009B012B02D003E0012310
:101B9C0002E0012300E00023184602B0704700BFAA
:101BAC0030010010E00F00F0E80F00F034010010DD
:101BBC0082B01B4B1B68B3F1FF3F0AD1194B1B685A
:101BCC00DBB20193184B1B681B0903F00F03009346
:101BDC0005E0134B1B680193144B1B680093019B8E
:101BEC000D2B0AD1009B002B03D0009B012B02D0A4
:101BFC0003E0012310E001230EE0019B102B0AD11E
:101C0C00009B002B03D0009B012B02D003E001238F
:101C1C0002E0012300E00023184602B0704700BF29
:101C2C0030010010E00F00F0E80F00F0340100105C
:101C3C00024B034A1A6000BF704700BF0800002027
:101C4C000090D00308B5FFF733FF0346002B0ED0EE
:101C5C004FF080430022C3F80C214FF08043002248
:101C6C00C3F810214FF080430022C3F83825FFF74A
:101C7C005FFF0346002B76D04FF08053614AD3F8B8
:101C8C000434C2F820354FF080535E4AD3F8083440
:101C9C00C2F824354FF080535A4AD3F80C34C2F8AA
:101CAC0028354FF08053574AD3F81034C2F82C35EE
:101CBC004FF08053534AD3F81434C2F830354FF0F8
:101CCC008053504AD3F81834C2F834354FF080534F
:101CDC004C4AD3F81C34C2F840354FF08053494A73
:101CEC00D3F82034C2F844354FF08053454AD3F82A
:101CFC002434C2F848354FF08053424AD3F8283484
:101D0C00C2F84C354FF080533E4AD3F82C34C2F80D
:101D1C0050354FF080533B4AD3F83034C2F8543529
:101D2C004FF08053374AD3F83434C2F860354FF053
:101D3C008053344AD3F83834C2F864354FF08053AA
:101D4C00304AD3F83C34C2F868354FF080532D4AF2
:101D5C00D3F84034C2F86C354FF08053294AD3F88D
:101D6C004434C2F87035FFF723FF0346002B0DD027
:101D7C004FF08043D3F8003403F00103002B05D05F
:101D8C004FF080436FF00102C3F800244FF0102392
:101D9C00D3F80032002B05DB4FF01023D3F80432BC
:101DAC00002B2BDA184B0122C3F8042500BF164B6D
:101DBC00D3F80034002BFAD04FF010231222C3F8C2
:101DCC00002200BF104BD3F80034002BFAD04FF098
:101DDC0010231222C3F8042200BF0B4BD3F800349B
:101DEC00002BFAD0084B0022C3F8042500BF064B89
:101DFC00D3F80034002BFAD0FFF746FEFFF718FF9C
:101E0C0000BF08BD00C0004000E001408446002A2D
:101E1C002DD010F0030F04D000F8011B013A26D08E
:101E2C00F7E7C9B241EA012141EA0141202A12D364
:101E3C00A2F120022DE9F0030B460C460D460E468E
:101E4C000F4688468946A0E8FA03203AFBD2BDE843
:101E5C00F00320320BD0042A05D340F8041B043ABB
:101E6C0005D0042AF9D200F8011B013AFBD16046D7
:021E7C007047AD
:101E8000443A2F6E5246355F53444B5F31372E3004
:101E90002E305F396431333039392F6D6F64756C92
:101EA00065732F6E7266782F68616C2F6E72665F35
:101EB0006770696F2E680000443A2F6E5246355F96
:101EC00053444B5F31372E302E305F39643133301D
:101ED00039392F636F6D706F6E656E74732F626F1B
:101EE000617264732F626F617264732E630000000D
:101EF0000D0E0F100B0C1819443A2F6E5246355F19
:101F000053444B5F31372E302E305F3964313330DC
:101F100039392F696E746567726174696F6E2F6EDF
:101F20007266782F6E7266785F676C75652E6800D2
:101F3000443A2F6E5246355F53444B5F31372E3053
:101F40002E305F396431333039392F6D6F64756CE1
:101F500065732F6E7266782F68616C2F6E72665F84
:101F60006770696F2E680000443A2F6E5246355FE5
:101F700053444B5F31372E302E305F39643133306C
:101F800039392F6D6F64756C65732F6E7266782F9B
:101F9000647269766572732F7372632F6E726678DE
:101FA0005F6770696F74652E63000000443A5C6E71
:101FB0006F726469635C30335F4750494F5C737282
:101FC000635C6D61696E2E6300000000010100001A
:101FD00003000200020002000100020000000000F5
:061FE0000338FDD8704734
:0C1FE8000D0E0F100B0C18190090D00308
:040000030000037581
:00000001FF
