:1000000000800020750300005D0300005F03000016
:1000100061030000630300006503000000000000AE
:100020000000000000000000000000006703000066
:1000300069030000000000006B0300006D03000076
:100040006F0300006F0300006F0300006F030000E8
:100050006F030000000000006F03000000000000BC
:100060006F0300006F0300006F0300006F030000C8
:100070006F0300006F0300006F0300006F030000B8
:100080006F0300006F0300006F0300006F030000A8
:100090006F0300006F0300006F0300006F03000098
:1000A0006F0300006F0300006F03000000000000FA
:1000B0000000000000000000000000000000000040
:1000C0000000000000000000000000000000000030
:1000D0000000000000000000000000006F030000AE
:1000E0000000000000000000000000000000000010
:1000F0000000000000000000000000000000000000
:1001000000000000000000000000000000000000EF
:1001100000000000000000000000000000000000DF
:1001200000000000000000000000000000000000CF
:1001300000000000000000000000000000000000BF
:1001400000000000000000000000000000000000AF
:10015000000000000000000000000000000000009F
:10016000000000000000000000000000000000008F
:10017000000000000000000000000000000000007F
:10018000000000000000000000000000000000006F
:10019000000000000000000000000000000000005F
:1001A000000000000000000000000000000000004F
:1001B000000000000000000000000000000000003F
:1001C000000000000000000000000000000000002F
:1001D000000000000000000000000000000000001F
:1001E000000000000000000000000000000000000F
:1001F00000000000000000000000000000000000FF
:10020000354936480A1A02D0072291438D463449AF
:1002100034480A1A06D00722914381F30988022242
:1002200082F3148830483149314A00F044F83148AB
:100230003149324A00F03FF831483249324A00F041
:100240003AF832483249334A00F035F832483349F7
:10025000334A00F030F833483349344A00F02BF881
:1002600033483449344A00F026F8344834490022EF
:1002700000F02CF833483449002200F027F83348C6
:100280003349091A082902DB002202604160314A21
:1002900090471F481F49884205D00268043003B4C4
:1002A000904703BCF7E700208646EC46002000217B
:1002B000294A9047FEE7884207D0521A05D00378B2
:1002C00001300B700131013AF9D17047884202D0F8
:1002D00002700130FAE770470080002000700020B3
:1002E0000080002000800020380600000000002070
:1002F00004000020BC030000BC030000280600002E
:100300003806000000000020000000202806000041
:100310002806000028060000280600002806000025
:100320002806000028060000280600003606000007
:100330003C0600000400002004000020040000200F
:10034000040000200400002004000020040000201D
:10035000041000208B03000059040000FEE7FEE7B4
:10036000FEE7FEE7FEE7FEE7FEE7FEE7FEE7FEE765
:1003700000F002B8FFF7FCBF0B484FF007018843BD
:1003800085460A488047FFF73BBF094809490A4AA2
:10039000884207D0521A05D0037801300B70013122
:1003A000013AF9D17047000000800020C904000024
:0C03B000280600000000002000000020D3
:1003BC00044B1A5C012393404FF0A042C2F808355D
:1003CC00704700BF2806000008B50020FFF7F0FFBB
:1003DC000120FFF7EDFF0220FFF7EAFFBDE8084020
:1003EC000320FFF7E5BF0000074A4FF0A041105C67
:1003FC00D1F804350122824022EA03001340C1F8EF
:10040C000805C1F80C35704728060000C20708B56E
:10041C0001460CD54FF0A0430322C3F83427C3F890
:10042C003827C3F83C27C3F84027FFF7CDFF8B07CD
:10043C000AD54FF0A0430C22C3F82C27C3F8302761
:10044C00C3F86027C3F8642708BD000070B501200D
:10045C00094DFFF7DBFF45F0010500242046FFF7AF
:10046C00C3FF4FF4FA764FF47A40A847013EFAD115
:10047C000134042CF2D1F0E7300600000B4B1B6862
:10048C005A1C05BF0A4B0B4A0B4A10680ABF1B7853
:10049C001068C0F303100D2B04D101288CBF002071
:1004AC0001207047102BF8D000207047300100104D
:1004BC00E00F00F0E80F00F03401001008B5FFF772
:1004CC00DDFF40B14FF080430022C3F80C21C3F88C
:1004DC001021C3F83825FFF7D1FF002846D04FF084
:1004EC008052484BD2F80414C3F82015D2F80814E3
:1004FC00C3F82415D2F80C14C3F82815D2F810142C
:10050C00C3F82C15D2F81414C3F83015D2F81814FB
:10051C00C3F83415D2F81C14C3F84015D2F82014C3
:10052C00C3F84415D2F82414C3F84815D2F828148B
:10053C00C3F84C15D2F82C14C3F85015D2F830145B
:10054C00C3F85415D2F83414C3F86015D2F8381423
:10055C00C3F86415D2F83C14C3F86815D2F84014EB
:10056C00C3F86C15D2F84424C3F87025FFF786FF46
:10057C0048B14FF08043D3F80024D20744BF6FF04A
:10058C000102C3F800244FF01023D3F80022002AF4
:10059C0003DBD3F80432002B2FDA1B4B0122C3F8F8
:1005AC000425D3F80024002AFBD04FF0102212218E
:1005BC00C2F80012D3F80024002AFBD04FF010230D
:1005CC001222C3F80422104B1A46D3F80014002947
:1005DC00FBD00021C3F80415D2F80034002BFBD05B
:1005EC00BFF34F8F09490A4BCA6802F4E062134308
:1005FC00CB60BFF34F8F00BFFDE7064B064A1A6076
:10060C0008BD00BF00C0004000E0014000ED00E06C
:0C061C000400FA05000000200090D0034C
:0E0628000D0E0F10000000000338FDD87047C3
:040638000090D0035B
:040000030000037581
:00000001FF
